S01100004D756C7469426F6F742E7372656374
S21403E00065C00000BCC00000BAC00000B8C0000075
S21403E010B6C00000B4C00000B2C00000B0C000002C
S21403E020AEC00000ACC00000AAC00000A8C000003C
S21403E030A6C00000A4C00000A2C00000A0C000004C
S21403E0409EC000009CC000009AC0000098C000005C
S21403E05096C0000094C0000092C0000090C000006C
S21403E0608EC0000056C100008AC0000088C00000B1
S21403E07086C0000084C0000082C0000080C000008C
S21403E0807EC000007CC000007AC0000078C000009C
S21403E09076C1000074C0000072C0000070C00000AB
S21403E0A06EC000006CC000006AC0000068C00000BC
S21403E0B066C0000064C0000062C0000060C00000CC
S21403E0C05EC000005CC000005AC0000011241FBEE2
S21403E0D0CFEFD1E2DEBFCDBF01E00CBFF89484B72B
S21403E0E08093A90914BE0FB6F894A8958091600092
S21403E0F0886180936000109260000FBE8FE19EE4FB
S21403E1000197F1F700C0000085B7816085BF85B72A
S21403E1108C7F826085BF41E060E07BE480E090E036
S21403E12064D121E040E060E080E034D078949FEF53
S21403E13020E782E0915020408040E1F700C00000D5
S21403E14080E092E09F938F93ADD10F900F9017E0EE
S21403E150A0E0B2E0EEECF5EF03E00BBF02C00790E1
S21403E1600D92A23AB107D9F729E0A2EAB7E001C0B7
S21403E1701D92AA3AB207E1F7D2D50D94D4FA40CF4E
S21403E1806BBFFA01DC0102C007900D9221503040AC
S21403E190D8F7089594B1976094B923982B9A63702F
S21403E1A094E0699FB001112443704065642BE82F07
S21403E1B0E170F0E085E0EE0FFF1F8A95E1F76E2B26
S21403E1C06CBD21702DBD08958EBD0DB407FEFDCF29
S21403E1D08EB50895CF92DF92EF92FF920F931F931F
S21403E1E0CF93DF93EA010097B9F08C016A017C01B3
S21403E1F0E60EF71E0E151F05D9F0F801808120974D
S21403E20021F0E2DFF601808301C0DEDF0F5F1F4FE0
S21403E210FFEFCF1ADF0AEECF209751F08A01060FE1
S21403E220171FC017D10721F080E0CEDF8993F9CFFF
S21403E230DF91CF911F910F91FF90EF90DF90CF90DA
S21403E24008950F931F93CF93DF931F921F92CDB71B
S21403E250DEB785E089831A821FB7F8944398AE0128
S21403E2604F5F5F4F62E070E0CA01B4DF439A1FBF9F
S21403E27005E08A8180FF14C08FEC97E00197F1F7E1
S21403E28000C0000009831FB7F8944398AE014F5FA0
S21403E2905F4F62E070E0CA019DDF439A1FBFE9CF7C
S21403E2A00F900F90DF91CF911F910F910895BF921A
S21403E2B0CF92DF92EF92FF920F931F93CF93DF934A
S21403E2C08A01E9016B017C0121E0E222FF24B9DF28
S21403E2D0BFB6F894439883E077DF8E2D75DF8D2DD8
S21403E2E073DF8C2D71DFA801BE0180E090E072DF42
S21403E2F0439ABFBEDF91CF911F910F91FF90EF908E
S21403E300DF90CF90BF9008952115310509F0CFCF48
S21403E31008951F920F920FB60F9211240BB60F9209
S21403E3202F933F938F939F93EF93FF9380912408AC
S21403E330909125089C012F5F3F4F3093250820932B
S21403E34024082091C600FC01EA5DF74F20838091E4
S21403E3502408909125088038910520F0109225080E
S21403E36010922408FF91EF919F918F913F912F91E7
S21403E3700F900BBE0F900FBE0F901F9018951F9215
S21403E3800F920FB60F9211240BB60F922F933F9353
S21403E3908F939F93EF93FF938091A2079091A30788
S21403E3A09C012F5F3F4F3093A3072093A207209132
S21403E3B0CE00FC01EC55F84F20838091A207909184
S21403E3C0A3078038910520F01092A3071092A207A6
S21403E3D0FF91EF919F918F913F912F910F900BBEDD
S21403E3E00F900FBE0F901F9018958F929F92AF922B
S21403E3F0BF92CF92DF92EF92FF92CF934B015C01D5
S21403E400C42F80E8E4EAF7E0DF011D928A95E9F776
S21403E410411105C028E030E040E050E004C024E0AD
S21403E42030E040E050E0C501B40155D56B017C01F6
S21403E430B2E1DB0EBAE7EB1EF11CC11105C020E109
S21403E44030E040E050E004C028E030E040E050E038
S21403E450C501B40140D59B01AC01C701B6014AD53D
S21403E460215031093093CD002093CC00CC2319F0F2
S21403E47082E08093C80088E98093C90086E0809391
S21403E480CA00CF91FF90EF90DF90CF90BF90AF90F0
S21403E4909F908F9008959091C80095FFFCCF80932E
S21403E4A0CE000895EF92FF920F931F93CF93DF93BF
S21403E4B0CDB7DEB7C054D1090FB6F894DEBF0FBE92
S21403E4C0CDBF9E01265B3F4FF901419151919F01BC
S21403E4D060E470E0CE01019651D58E010F5F1F4FA9
S21403E4E07801E80EF91E0E151F0529F0F801819133
S21403E4F08F01D1DFF8CFC05CDF4F0FB6F894DEBFD5
S21403E5000FBECDBFDF91CF911F910F91FF90EF907C
S21403E5100895FC0180818B3549F01F928F9382E921
S21403E52097E09F938F9386E192E056C0858185306E
S21403E53050F084811F928F9382E997E09F938F9385
S21403E54086E492E049C08381813061F48781853017
S21403E55048F01F928F9382E997E09F938F9385E706
S21403E56092E03AC082818150823060F486818530A1
S21403E57048F01F928F9382E997E09F938F9382EAE6
S21403E58092E02AC0AF01495D5F4F80E090E02191A1
S21403E5908227282F22952827022E26952695202582
S21403E5A0022E269520252770082E892F2695079458
S21403E5B02795902D82270694279590258227E41782
S21403E5C0F50729F7009799F09F938F9382E997E0D1
S21403E5D09F938F938EEC92E09F938F9363DF0F90BE
S21403E5E00F900F900F900F900F9080E0089581E0AA
S21403E5F008958F929F92AF92BF92CF92DF92EF923F
S21403E600FF920F931F93CF93DF936B017C01EA0175
S21403E6102115310511F02097B1F43F932F93DF9323
S21403E620CF9381E897E09F938F9380EF92E09F9339
S21403E6308F9338DF8DB79EB708960FB6F8949EBFB4
S21403E6400FBE8DBF9EC0DC01CB01820F931FA11DA1
S21403E650B11D0097A440B105C0F03F932F93FF92DE
S21403E660EF92DF92CF9281E897E09F938F9385E2B4
S21403E67093E09F938F9316DF8DB79EB70A960FB6D8
S21403E680F8949EBF0FBE8DBF7CC0890121303140F8
S21403E69010F000E011E007B600FCFDCFF999FECFBD
S21403E6A083E0F601E0925B0080935700E895FF92C3
S21403E6B0EF92DF92CF9281E897E09F938F9388E55E
S21403E6C093E09F938F93EEDE8DB79EB708960FB6B3
S21403E6D0F8949EBF0FBE8DBF20E030E041E007B642
S21403E6E000FCFDCFF999FECF46015701820E931E1B
S21403E6F0A11CB11C898190E0982F88275881852B0F
S21403E7000C01F401A0925B0040935700E895112496
S21403E7102E5F3F4F22962017310708F307B600FCFB
S21403E720FDCFF999FECF85E0F601E0925B0080937A
S21403E7305700E895FF92EF92DF92CF9281E897E039
S21403E7409F938F9380E893E09F938F93ABDE8DB771
S21403E7509EB708960FB6F8949EBF0FBE8DBF07B63A
S21403E76000FCFDCFF999FECF81E897E09F938F9346
S21403E77089EA93E09F938F9395DE0F900F900F9007
S21403E7800F90DF91CF911F910F91FF90EF90DF9045
S21403E790CF90BF90AF909F908F9008952F923F9207
S21403E7A04F925F926F927F928F929F92AF92BF9299
S21403E7B0CF92DF92EF92FF920F931F93CF93DF9345
S21403E7C0CDB7DEB7CE5CD1090FB6F894DEBF0FBE69
S21403E7D0CDBF4B015C016F3F71058105910509F0C3
S21403E7E058F4BF92AF929F926F9389E797E09F93F7
S21403E7F08F938CEC93E014C0DC01CB0184539F4FC2
S21403E800AF4FBF4F0097A440B105A0F0BF92AF92A1
S21403E8109F928F9289E797E09F938F938CEF93E075
S21403E8209F938F933FDE0FB6F894DEBF0FBECDBF28
S21403E83080E06AC1CE0101961C018CECF1011192B5
S21403E8408A95E9F781149104F1E0AF06B10438F034
S21403E8502CEC30E0B501A401C10192DC05C04CEC00
S21403E86050E0B401C10181D31F928CEC8F93BF9209
S21403E870AF929F928F9289E797E09F938F938AE256
S21403E88094E09F938F930EDE710122E0820E911C1B
S21403E890A11CB11C0FB6F894DEBF0FBECDBFC35389
S21403E8A0DF4F19821882CD5CD04079E7C72E77E018
S21403E8B0D72EF7018081918122813381492E512CF5
S21403E8C0612C712C320155244424782A432A522A77
S21403E8D01F923F931F922F931F929F931F928F9384
S21403E8E0DF92CF9220E634E03F932F93DBDD2301C4
S21403E8F06624772490EF4922552466247724C3534D
S21403E900DF4F08811981CD5CD04016950795169583
S21403E91007951F930F937F926F925F924F92DF92AA
S21403E920CF92E6E9F4E0FF93EF93BCDD0FB6F894DD
S21403E930DEBF0FBECDBF90EC4916510461047104CF
S21403E94009F0A7C01F930F93DF92CF92EEEBF4E08C
S21403E950FF93EF93A7DDF70181818F7090E0982FE7
S21403E96088272081822B8C0100271870000F111F27
S21403E970802B912B9C0122273870220F331F220FE6
S21403E980331F822B932B8C010027187053E0000F44
S21403E990111F5A95E1F7802B912B8C01000F111F45
S21403E9A01F930F93DF92CF9220EE34E03F932F9383
S21403E9B079DD2801110F66087708480C591C6A1C74
S21403E9C07B1C7F926F925F924F92DF92CF92E8E02A
S21403E9D0F5E0FF93EF9366DDB301A20144275527C5
S21403E9E068777727EFE07695679557954795EA9585
S21403E9F0D1F7D301C20188279927A470BB27F2E178
S21403EA00B695A79597958795FA95D1F7842B482FB2
S21403EA104C60F7014083D301C20188279927A2706F
S21403EA20BB2711E1B695A795979587951A95D1F7C4
S21403EA30282F24692183D301C2018E7F9170AA27D0
S21403EA40BB27B695A7959795879582834424E89424
S21403EA5050F8F1E06F22772439E076946794579460
S21403EA6047943A95D1F7F70143825F924F929F936B
S21403EA708F931F922F931F924F93DF92CF9223E38E
S21403EA8035E03F932F930EDD0FB6F894DEBF0FBE2F
S21403EA90CDBFC353DF4F28813981CD5CD0402C5F77
S21403EAA03F4FC353DF4F39832883CD5CD04034E0D8
S21403EAB0E30EF11C84E0880E911CA11CB11CC35309
S21403EAC0DF4FE881F981CD5CD040EC3CF10509F0DD
S21403EAD0F0CE2CEC30E0A10160E070E0CB0189DDE4
S21403EAE01F928CEC8F931F921F9289E797E09F9358
S21403EAF08F9388E695E09F938F93D4DC0FB6F894B4
S21403EB00DEBF0FBECDBF81E0C253DF4F0FB6F89412
S21403EB10DEBF0FBECDBFDF91CF911F910F91FF9048
S21403EB20EF90DF90CF90BF90AF909F908F907F90A5
S21403EB306F905F904F903F902F9008954F925F9203
S21403EB406F927F928F929F92AF92BF92CF92DF92F5
S21403EB50EF92FF920F931F93CF93DF9300D01F92F2
S21403EB601F92CDB7DEB74B015C0129833A834B83F3
S21403EB705C8367017801DC01CB018C0D9D1DAE1D06
S21403EB80BF1D0097A440B10578F0FF92EF92DF9285
S21403EB90CF92BF92AF929F928F9281E797E09F9317
S21403EBA08F9382E995E01AC089819A81AB81BC81F3
S21403EBB08C0D9D1DAE1DBF1D0097A240B105C0F074
S21403EBC0FF92EF92DF92CF92BF92AF929F928F9275
S21403EBD081E797E09F938F938FEC95E09F938F93B6
S21403EBE061DC0FB6F894DEBF0FBECDBF1D8280C0BA
S21403EBF09091A8099D8391110EC081E797E09F939A
S21403EC008F938CE096E09F938F934CDC0F900F903E
S21403EC100F900F906DC08FE19EE40197F1F700C04F
S21403EC200000C114D104E104F10409F441C0260133
S21403EC30370191E0C916D906E104F10420F0412C0E
S21403EC40512C320153948091A6099091A7092981EA
S21403EC503A814B815C81280F391F411D511DCA0122
S21403EC60B901920146EA58E04FDB8091A6099091DC
S21403EC70A709A5019401280F391F411D511DCA017B
S21403EC80B901920146EA58E0B4DC8091A609909156
S21403EC90A709840D951D9093A7098093A609C41808
S21403ECA0D508E608F7088FE097E20197F1F7B7CFA4
S21403ECB01F921F921F921F92BF92AF929F928F92A4
S21403ECC09C819F932B812F933A813F9349814F9346
S21403ECD081E797E09F938F9387E296E09F938F93C6
S21403ECE0E1DB0FB6F894DEBF0FBECDBF91E09D8388
S21403ECF08D810F900F900F900F900F90DF91CF9113
S21403ED001F910F91FF90EF90DF90CF90BF90AF9041
S21403ED109F908F907F906F905F904F900895CF92C3
S21403ED20DF92EF92FF920F931F93CF93DF93CDB7AC
S21403ED30DEB7A7970FB6F894DEBF0FBECDBFCE01E2
S21403ED4001966C0187E2F60111928A95E9F78CE049
S21403ED508F931F928CE697E09F938F938DE796E0B1
S21403ED609F938F939FDB0F900F900F900F900F90B2
S21403ED700F90F999FECF47E250E060E07CE0C601D1
S21403ED80E2D30CE617E01F930F9384EB96E09F9372
S21403ED908F9388DBC601BDDB0F900F900F900F900B
S21403EDA081111FC01F930F9383ED96E09F938F935C
S21403EDB079DBFFEF21E18AE7F15020408040E1F75D
S21403EDC000C0000098E088E10FB6F894A8958093F9
S21403EDD060000FBE909360000F900F900F900F90FF
S21403EDE0FFCF8D811F928F931F930F9385E197E03B
S21403EDF09F938F9357DB0F900F900F900F900F906A
S21403EE000F908C81813031F588851F928F931F93E5
S21403EE100F938EE297E09F938F9344DBEAA0FBA0C9
S21403EE200CA11DA12E8D3F8D48A159A18885F60101
S21403EE3094E0899FE00DF11D112461857285838519
S21403EE4094857CDE0F900F900F900F900F900F908D
S21403EE5081111C828B81811125C08E819D8189172A
S21403EE6009F11F928F938CE697E09F938F938DE41F
S21403EE7097E09F938F9316DB8E81F60124E0829FA3
S21403EE80E00DF11D1124618572858385948586DCEA
S21403EE900F900F900F900F900F900F90882311F004
S21403EEA08E818D83F999FECF47E250E060E07CE0E7
S21403EEB0C60159D380E090E0A7960FB6F894DEBF5C
S21403EEC00FBECDBFDF91CF911F910F91FF90EF90B3
S21403EED0DF90CF900895DB018F939F932DD0BF9142
S21403EEE0AF91A29F800D911DA39F900DB29F900D91
S21403EEF011240895A1E21A2EAA1BBB1BFD010DC007
S21403EF00AA1FBB1FEE1FFF1FA217B307E407F507D1
S21403EF1020F0A21BB30BE40BF50B661F771F881FAD
S21403EF20991F1A9469F760957095809590959B0143
S21403EF30AC01BD01CF01089509D0A59F900DB49FE4
S21403EF40900DA49F800D911D11240895A29FB001DA
S21403EF50B39FC001A39F700D811D1124911DB29F05
S21403EF60700D811D1124911D0895FB01DC0102C063
S21403EF7005900D9241505040D8F708950F931F9374
S21403EF80CF93DF93CDB7DEB72E970FB6F894DEBFD9
S21403EF900FBECDBF8C01FA0186E08C831A830983EA
S21403EFA077FF02C060E070E8CB0101979E838D83F4
S21403EFB0A901BF01CE01019619D04D815E8157FD8F
S21403EFC00AC02F813885421753070CF49A01F801BB
S21403EFD0E20FF31F10822E960FB6F894DEBF0FBE15
S21403EFE0CDBFDF91CF911F910F9108952F923F923E
S21403EFF04F925F926F927F928F929F92AF92BF9241
S21403F000CF92DF92EF92FF920F931F93CF93DF93EC
S21403F010CDB7DEB72B970FB6F894DEBF0FBECDBFC6
S21403F0206C017B018A01FC0117821682838181FFB2
S21403F030BFC1CE0101963C01F6019381F70193FD12
S21403F040859193FF81917F01882309F4ADC18532B1
S21403F05039F493FD859193FF81917F01853221F4E5
S21403F060B60190E0D6D1E8CF912C212C312CFFE1CC
S21403F070F315D8F08B3279F038F4803279F0833296
S21403F080A1F4232D20611DC08D3261F0803369F415
S21403F090232D216016C0832D8260382EE32DE46075
S21403F0A03E2E2AC0F32DF8601DC037FC2DC020ED80
S21403F0B0280F2A3040F08E32B9F436FC75C1232D62
S21403F0C02064322E19C036FE06C08AE0989E200DB4
S21403F0D01124922E11C0EAE02E9E200D1124222E1A
S21403F0E0F32DF0623F2E08C08C3621F4832D806802
S21403F0F0382E02C0883641F4F70193FD859193FFBD
S21403F10081917F018111B3CF982F9F7D95549330C2
S21403F11028F40C5F1F4F9FE399830DC0833631F0AD
S21403F120833771F0833509F055C020C0F80180811C
S21403F13089830E5F1F4F88248394912C530112C03A
S21403F1402801F2E04F0E511CF801A080B18036FE74
S21403F15003C0692D70E002C06FEF7FEFC5014ED18B
S21403F1604C018201F32DFF773F2E15C0280122E0C4
S21403F170420E511CF801A080B18036FE03C0692DF3
S21403F18070E002C06FEF7FEFC5012DD14C01F32D68
S21403F190F0683F2E820133FC19C0822D90E088165A
S21403F1A09906A0F4B60180E290E033D12A94F5CF15
S21403F1B0F50137FC859137FE81915F01B60190E03A
S21403F1C028D121102A9421E0821A910881149104EF
S21403F1D079F7E1C0843611F0893639F5F80137FE40
S21403F1E007C060817181828193810C5F1F4F08C0C5
S21403F1F060817181072E000C880B990B0E5F1F4FE1
S21403F200F32DFF763F2E97FF09C090958095709556
S21403F21061957F4F8F4F9F4FF0683F2E2AE030E077
S21403F220A30133D1882E861844C0853731F4232DA5
S21403F2302F7EB22E2AE030E025C0932D997FB92E7B
S21403F2408F36C1F018F4883579F0AEC0803719F0E0
S21403F250883721F0A9C0E92FE061BE2EB4FE0DC0A9
S21403F260FB2DF460BF2E09C034FE0AC0292F26608A
S21403F270B22E06C028E030E005C020E130E002C030
S21403F28020E132E0F801B7FE07C060817181828118
S21403F29093810C5F1F4F06C06081718180E090E010
S21403F2A00E5F1F4FA301F1D0882E8618FB2DFF7724
S21403F2B03F2E36FE0DC0232D2E7FA22E891458F422
S21403F2C034FE0BC032FC09C0832D8E7EA82E05C0EB
S21403F2D0B82CA32C03C0B82C01C0B92CA4FE0FC0B5
S21403F2E0FE01E80DF11D8081803321F49A2D997E6D
S21403F2F0A92E09C0A2FE06C0B394B39404C08A2DF7
S21403F300867809F0B394A3FC10C0A0FE06C0B2141E
S21403F31080F4280C922C9B180DC0B21458F4B60136
S21403F32080E290E076D0B394F8CFB21418F42B189A
S21403F33002C0982C212CA4FE0FC0B60180E390E0F7
S21403F34068D0A2FE16C0A1FC03C088E790E002C006
S21403F35088E590E0B6010CC08A2D867851F0A1FEB0
S21403F36002C08BE201C080E2A7FC8DE2B60190E00A
S21403F37050D0891430F4B60180E390E04AD09A94D2
S21403F380F8CF8A94F301E80DF11D8081B60190E071
S21403F39040D08110F6CF222009F44ECEB60180E28B
S21403F3A090E037D02A94F7CFF6018681978102C082
S21403F3B08FEF9FEF2B960FB6F894DEBF0FBECDBF31
S21403F3C0DF91CF911F910F91FF90EF90DF90CF9039
S21403F3D0BF90AF909F908F907F906F905F904F906D
S21403F3E03F902F900895FC010590615070400110E6
S21403F3F0D8F7809590958E0F9F1F0895FC01615056
S21403F400704001900110D8F7809590958E0F9F1F3E
S21403F41008950F931F93CF93DF93FB01238121FD61
S21403F42003C08FEF9FEF2CC022FF16C04681578183
S21403F430248135814217530744F4A081B1819D018D
S21403F4402F5F3F4F318320838C93268137812F5F35
S21403F4503F4F3783268314C08B01EC01FB010084E6
S21403F460F185E02D1995892BE1F6D80116968D9135
S21403F4709C911797019617969C938E931697CE0199
S21403F480DF91CF911F910F910895FA01AA27283093
S21403F49051F1203181F1E8946F936E7F6E5F7F4F59
S21403F4A08F4F9F4FAF4FB1E03ED0B4E03CD0670FD5
S21403F4B0781F891F9A1FA11D680F791F8A1F911D28
S21403F4C0A11D6A0F711D811D911DA11D20D009F478
S21403F4D068943F912AE0269F11243019305D3193BA
S21403F4E0DEF6CF010895462F4770405D4193B3E0A3
S21403F4F00FD0C9F7F6CF462F4F70405D4A3318F04A
S21403F500495D31FD4052419302D0A9F7EACFB4E0FA
S21403F510A6959795879577956795BA95C9F70097B2
S21403F5206105710508959B01AC010A2E0694579553
S21403F530479537952795BA95C9F7620F731F841FAA
S21403F540951FA01D0895DC01CB01FC01F999FECFA0
S21403F55006C0F2BDE1BDF89A319600B40D92415053
S21403F5605040B8F70895DC01A40FB51F4150504032
S21403F57040F0CB01840F951F2E9105D0415050408B
S21403F580D8F70895262FF999FECF92BD81BDF89A34
S21403F590019700B4021639F01FBA20BD0FB6F894CF
S21403F5A0FA9AF99A0FBE0895F89481E1809357006A
S21403F5B0E89585B7816085BF85B78C7F85BF8FEF5C
S21203F5C08DBF81E28EBF0C940000F894FFCF3F
S21403F5CE0D0A0D0A3E204D756C7469426F6F7420DA
S21403F5DE76312E300A005B25735D202D20426F6F29
S21403F5EE7420436F6E666967206D61676963206476
S21403F5FE6F6573206E6F74206D61746368205B2570
S21403F60E3032585D0A005B25735D202D204E6F72D7
S21403F61E6D616C20524F4D20696E64657820657857
S21403F62E6365656473204D41585F524F4D53205B9F
S21403F63E25645D0A005B25735D202D204C6F616487
S21403F64E20524F4D20696E64657820657863656534
S21403F65E6473204D41585F524F4D53205B25645DB6
S21403F66E0A005B25735D202D2050696E20524F4D88
S21403F67E20696E6465782065786365656473204DCE
S21403F68E41585F524F4D53205B25645D0A005B2540
S21403F69E735D202D2043524320646F6573206E6F77
S21403F6AE74206D61746368205B253032585D0A00E2
S21403F6BE5B25735D202D2042756666657220706F1E
S21403F6CE696E746572206F722073697A6520696E2F
S21403F6DE76616C6964205B3078253034585D205B28
S21403F6EE25645D0A005B25735D202D2044617461DD
S21403F6FE2073697A65206578636565647320666C26
S21403F70E6173682073697A65205B307825303858C4
S21403F71E5D205B25645D0A005B25735D202D204509
S21403F72E726173656420706167652061742061641D
S21403F73E6472657373205B3078253038585D0A0023
S21403F74E5B25735D202D205772697474656E207069
S21403F75E6167652061742061646472657373205BF0
S21403F76E3078253038585D0A005B25735D202D20D2
S21403F77E454550524F4D20262053504D206E6F74E4
S21403F78E20627573792C204F4B210A005B25735D1F
S21403F79E202D2041646472657373206973206C6F29
S21403F7AE776572207468616E204956542073697AA1
S21403F7BE65205B3078253034585D0A005B25735D13
S21403F7CE202D20446174612073697A652065786301
S21403F7DE6565647320666C6173682073697A652049
S21403F7EE5B3078253034585D0A005B25735D202D1B
S21403F7FE20495654204C6F6164656420696E746F9D
S21403F80E20696E7465726E616C20627566666572CB
S21403F81E205B3078253034585D205B25755D0A00F5
S21403F82E5B25735D202D204F726967696E616C20B0
S21403F83E62797465636F6465205B253032585D208C
S21403F84E5B253032585D205B253032585D205B25B4
S21403F85E3032585D0A005B25735D202D204F5020F5
S21403F86E636F646520617420766563746F72205BC4
S21403F87E3078253034585D205B25755D0A005B2590
S21403F88E735D202D20466F756E6420524A4D5020B0
S21403F89E617420766563746F72205B25755D0A004E
S21403F8AE5B25735D202D20524A4D50206469666693
S21403F8BE20627974652061646472657373205B30AD
S21403F8CE78253034585D0A005B25735D202D204A5B
S21403F8DE4D50206162736F6C757465206279746522
S21403F8EE2061646472657373205B307825303858F4
S21403F8FE5D0A005B25735D202D2050617463686579
S21403F90E642062797465636F6465205B25303258B4
S21403F91E5D205B253032585D205B253032585D20E6
S21403F92E5B253032585D0A005B25735D202D20570C
S21403F93E726F746520666C617368207061676520EC
S21403F94E6174205B3078253038585D205B25645D06
S21403F95E0A005B25735D202D204461746120736954
S21403F96E7A65206578636565647320696E7465725F
S21403F97E6E616C20666C6173682073697A65205BB2
S21403F98E3078253038585D205B256C755D0A005B34
S21403F99E25735D202D20446174612073697A65207A
S21403F9AE657863656564732065787465726E616CDD
S21403F9BE20666C6173682073697A65205B307825E0
S21403F9CE3038585D205B256C755D0A005B25735DCC
S21403F9DE202D2053504920466C61736820696E694A
S21403F9EE74204E4F4B0A005B25735D202D20436F0C
S21403F9FE70696564206669726D77617265206672DA
S21403FA0E6F6D2065787465726E616C20666C6173BB
S21403FA1E6820746F20696E7465726E616C20666CF6
S21403FA2E617368205B3078253038585D205B3078FC
S21403FA3E253038585D205B256C755D0A005B257393
S21403FA4E5D202D2052656164696E6720626F6F7448
S21403FA5E20636F6E66696720617420454550524F6A
S21403FA6E4D2061646472657373205B307825303481
S21403FA7E585D0A005B25735D202D2056616C696404
S21403FA8E6174696E6720626F6F7420636F6E66694A
S21403FA9E670A005B25735D202D20426F6F7420630B
S21403FAAE6F6E666967206E6F742076616C69642C60
S21403FABE2077616974696E672035207365636F6E90
S21403FACE6473206265666F7265207265626F6F740B
S21403FADE696E670A005B25735D202D20437572726F
S21403FAEE656E7420524F4D205B25645D0A005B25C0
S21403FAFE735D202D20476F696E6720746F206C6FC1
S21403FB0E616420524F4D205B25645D0A005B2573AE
S21403FB1E5D202D20476F696E6720746F20626F6FAE
S21403FB2E7420524F4D205B25645D0A006D61696E2D
S21403FB3E006C6F6164524F4D00626F6F74524F4D7F
S21403FB4E00666C61736850726F6772616D506167A1
S21403FB5E650076616C6964617465436F6E6669678A
S20603FB6E00008D
S80403E00018
