S01100004D756C7469426F6F742E7372656374
S21403E00065C00000BCC00000BAC00000B8C0000075
S21403E010B6C00000B4C00000B2C00000B0C000002C
S21403E020AEC00000ACC00000AAC00000A8C000003C
S21403E030A6C00000A4C00000A2C00000A0C000004C
S21403E0409EC000009CC000009AC0000098C000005C
S21403E05096C0000094C0000092C0000090C000006C
S21403E0608EC000000CC100008AC0000088C00000FB
S21403E07086C0000084C0000082C0000080C000008C
S21403E0807EC000007CC000007AC0000078C000009C
S21403E0902CC1000074C0000072C0000070C00000F5
S21403E0A06EC000006CC000006AC0000068C00000BC
S21403E0B066C0000064C0000062C0000060C00000CC
S21403E0C05EC000005CC000005AC0000011241FBEE2
S21403E0D0CFEFD1E2DEBFCDBF01E00CBFF89484B72B
S21403E0E08093370C14BE0FB6F894A8958091600001
S21403E0F0886180936000109260000FBE8FE19EE4FB
S21403E1000197F1F700C0000085B7816085BF85B72A
S21403E1108C7F826085BF41E060E07BE480E090E036
S21403E1201AD121E040E060E080E034D078949FEF9D
S21403E13020E782E0915020408040E1F700C00000D5
S21403E14084E792E09F938F9370D10F900F901AE01D
S21403E150A0E0B2E0E6EFF7EF03E00BBF02C00790E4
S21403E1600D92A033B107D9F72CE0A0E3BAE001C0C3
S21403E1701D92A833B207E1F72ED60D94E8FB40CFE5
S21403E1806BBFFA01DC0102C007900D9221503040AC
S21403E190D8F7089594B1976094B923982B9A63702F
S21403E1A0660F660F43704065462BE82FE170F0E07C
S21403E1B0EE0FFF1FE295F295F07FFE27E07FFE2726
S21403E1C0E42BECBD21702DBD08958EBD0DB407FE66
S21403E1D0FDCF8EB50895CF93DF93DFB7F8944398BA
S21403E1E085E0F3DF80E0F1DFC82F439ADFBF80FDD1
S21403E1F003C0DF91CF9108958FEC97E00197F1F775
S21403E20000C00000DFB7F894439885E0DEDF8C2F6C
S21403E210EACFBF92CF92DF92EF92FF920F931F93B4
S21403E220CF93DF932115310551F4DF91CF911F91E1
S21403E2300F91FF90EF90DF90CF90BF9008958901E4
S21403E240EA016B017C0181E0E822FF24C4DFBFB64C
S21403E250F894439883E0B9DF8E2DB7DF8D2DB5DFB5
S21403E2608C2DB3DF209741F00C0F1D1F80E0ADDF30
S21403E2708993C017D107D1F7439ABFBED6CF1F9253
S21403E2800F920FB60F9211240BB60F922F933F9354
S21403E2908F939F93EF93FF938091B20A9091B30A63
S21403E2A09C012F5F3F4F3093B30A2093B20A20910D
S21403E2B0C600FC01EC54F54F20838091B20A90917E
S21403E2C0B30A8038910520F01092B30A1092B20A6E
S21403E2D0FF91EF919F918F913F912F910F900BBEDE
S21403E2E00F900FBE0F901F9018951F920F920FB6A8
S21403E2F00F9211240BB60F922F933F938F939F93F6
S21403E300EF93FF938091300A9091310A9C012F5F1F
S21403E3103F4F3093310A2093300A2091CE00FC0100
S21403E320EE5CF54F20838091300A9091310A803855
S21403E330910520F01092310A1092300AFF91EF9166
S21403E3409F918F913F912F910F900BBE0F900FBE11
S21403E3500F901F901895CF92DF92EF92FF920F9334
S21403E3601F9320E8E2E3FAE0DF011D922A95E9F71E
S21403E37041112FC0DC01CB01880F991FAA1FBB1FB9
S21403E380880F991FAA1FBB1F8C019D01000F111F29
S21403E390221F331FC901B8017E5E85489F4FA9011E
S21403E3A09801220F331F441F551FD1D62150310920
S21403E3B03093CD002093CC0088E98093C90086E093
S21403E3C08093CA001F910F91FF90EF90DF90CF903C
S21403E3D008956B017C01CC0CDD1CEE1CFF1CCC0CE1
S21403E3E0DD1CEE1CFF1CB2E1DB0EBAE7EB1EF11CD4
S21403E3F0DC01CB01880F991FAA1FBB1F880F991F2B
S21403E400AA1FBB1F9C01AD01220F331F441F551FBC
S21403E410C701B6019CD6215031093093CD00209315
S21403E420CC0082E08093C800C7CFCF93DF93CDB7ED
S21403E430DEB7C054D1090FB6F894DEBF0FBECDBF0A
S21403E4409E012A5B3F4FF901419151919F0160E480
S21403E45070E0CE010196A6D6009779F0FE013196BC
S21403E460AF01480F591F21919091C80095FFFCCF2B
S21403E4702093CE00E417F507B1F7C05CDF4F0FB665
S21403E480F894DEBF0FBECDBFDF91CF910895CF9234
S21403E490DF92EF92FF920F931F93CF93DF936B015D
S21403E4A07C018A01E9012130314010F0C0E0D1E05F
S21403E4B007B600FCFDCFF999FECF83E0F601E092A4
S21403E4C05B0080935700E895FF92EF92DF92CF921E
S21403E4D08FE09AE09F938F9380E092E09F938F93D1
S21403E4E0A4DF8DB79EB708960FB6F8949EBF0FBEEF
S21403E4F08DBF209729F1D80120E030E011E007B660
S21403E50000FCFDCFF999FECFB701A601420F531FBA
S21403E510611D711D11968C91119790E0982F882795
S21403E520EC918E2B0C01FA0160935B00109357005D
S21403E530E89511242E5F3F4F12962C173D07F8F2ED
S21403E54007B600FCFDCFF999FECF85E0F601E09211
S21403E5505B0080935700E895FF92EF92DF92CF928D
S21403E5608FE09AE09F938F9388E292E09F938F9336
S21403E5705CDF8DB79EB708960FB6F8949EBF0FBEA6
S21403E5808DBF07B600FCFDCFF999FECF8FE09AE06A
S21403E5909F938F9381E592E09F938F9346DF0F902F
S21403E5A00F900F900F90DF91CF911F910F91FF90D7
S21403E5B0EF90DF90CF90089598E088E10FB6F89437
S21403E5C0A895809360000FBE90936000FFCFDC0198
S21403E5D096961C921E929597FC01AC014B5D5F4F7D
S21403E5E020E030E091912927922F92959227092EC9
S21403E5F0969596959025092E969590259770022EBA
S21403E600232F969507949795302D2927069497954B
S21403E6103025292796963C932E939597E417F5076E
S21403E62009F70895FC0180818B3509F036C0858192
S21403E630853008F045C09085891708F072C083813D
S21403E640813009F450C082818150823008F481C041
S21403E650AF01495D5F4F20E030E091912927922F6B
S21403E66092959227092E969596959025092E96951E
S21403E67090259770022E232F969507949795302D05
S21403E680292706949795302529274E175F0729F7DC
S21403E69021153105F9F481E008951F928F9380E2E6
S21403E6A09AE09F938F938AE892E09F938F93BDDEC1
S21403E6B00F900F900F900F900F900F9080E008959B
S21403E6C084811F928F9380E29AE09F938F938AEBC5
S21403E6D092E0EBCF3F932F9380E29AE09F938F9342
S21403E6E089ED93E0E2CF8781853008F04FC0891724
S21403E6F008F4A9CF1F929F931F928F9380E29AE00C
S21403E7009F938F938AE493E09F938F938EDE8DB7C8
S21403E7109EB708960FB6F8949EBF0FBE8DBF80E0D7
S21403E72008951F929F9387811F928F9380E29AE0AA
S21403E7309F938F9389EE92E09F938F9376DE8DB7A8
S21403E7409EB708960FB6F8949EBF0FBE8DBF80E0A7
S21403E75008958681853018F5891708F479CF1F92B6
S21403E7609F931F928F9380E29AE09F938F9388EAFA
S21403E77093E09F938F9359DE8DB79EB708960FB697
S21403E780F8949EBF0FBE8DBF80E008951F928F93AF
S21403E79080E29AE09F938F938DE193E086CF1F925A
S21403E7A08F9380E29AE09F938F938CE793E07DCFDD
S21403E7B02F923F924F925F926F927F928F929F9289
S21403E7C0AF92BF92CF92DF92EF92FF920F931F9377
S21403E7D0CF93DF93CDB7DEB7CE5CD1090FB6F894EF
S21403E7E0DEBF0FBECDBF4B015C016F3F71058105D8
S21403E7F0910509F008F4A5C1DC01CB0184539F4FB2
S21403E800AF4FBF4F0097A440B10508F048C18CEC4A
S21403E810FE013196C353DF4FF983E883CD5CD040C6
S21403E820282F11922A95E9F71F928F93BF92AF92E2
S21403E8309F928F9287E09AE09F938F9383EC94E066
S21403E8409F938F93F2DD0FB6F894DEBF0FBECDBF56
S21403E8508114910491E0A906B10408F46BC12CEC71
S21403E86030E0B501A401CE0101968ADC87E09AE088
S21403E8709F938F938AEF94E09F938F93D6DD8E01B9
S21403E8800F5F1F4FE2E08E0E911CA11CB11C0F9070
S21403E8900F900F900F90E12CF12CF7E02F2EFAE05B
S21403E8A03F2E0FC0F4E0EF0EF11C0C5F1F4F24E069
S21403E8B0820E911CA11CB11C3CECE316F10409F476
S21403E8C01BC1F8018081918122813381492E512C0D
S21403E8D0612C712C320155244424782A432A522A67
S21403E8E01F923F931F922F931F929F931F928F9374
S21403E8F03F922F9222E235E03F932F9396DD23013A
S21403E9006624772490EF49225524662477246701EA
S21403E910D694C794D694C794DF92CF927F926F9281
S21403E9205F924F923F922F92E2E5F5E0FF93EF93CB
S21403E9307CDD0FB6F894DEBF0FBECDBF90EC491654
S21403E94051046104710409F0ADCFDF92CF923F9278
S21403E9502F92EAE7F5E0FF93EF9367DDF8018181F5
S21403E9608F7090E0982F88272081822B2C014424D7
S21403E970F8E05F22440C551C482A592A92012227A4
S21403E9803870220F331F220F331F422A532AC20125
S21403E99088279870880F991F880F991F880F991FCB
S21403E9A0482A592A440C551C5F924F923F922F9245
S21403E9B02CE935E03F932F9338DD052C000C6608D1
S21403E9C07708480C591C6A1C7B1C7F926F925F92D7
S21403E9D04F923F922F92E0ECF5E0FF93EF9325DD05
S21403E9E0D301C20188279927A877BB27AC01BD01AD
S21403E9F0EFE07695679557954795EA95D1F7D30156
S21403EA00C20188279927A470BB27F2E1B695A7957C
S21403EA1097958795FA95D1F7842B282F2C60F801C4
S21403EA202083B301A2014427552762707727A1E10B
S21403EA307695679557954795AA95D1F74469418387
S21403EA40D301C2018E7F9170AA27BB27B695A795DF
S21403EA509795879582834424E89450F8F1E06F22D3
S21403EA60772459E076946794579447945A95D1F748
S21403EA70F80143825F924F929F938F931F924F9317
S21403EA801F922F933F922F922BEE35E03F932F93B7
S21403EA90CCDC0FB6F894DEBF0FBECDBF03CFBF925C
S21403EAA0AF929F928F9287E09AE09F938F9385E928
S21403EAB094E09F938F93B9DC0FB6F894DEBF0FBE36
S21403EAC0CDBF80E0C253DF4F0FB6F894DEBF0FBE54
S21403EAD0CDBFDF91CF911F910F91FF90EF90DF9005
S21403EAE0CF90BF90AF909F908F907F906F905F90E6
S21403EAF04F903F902F9008952CEC30E0AE014F5F7F
S21403EB005F4F60E070E0CB01C2DC1F928CEC8F930A
S21403EB101F921F9287E09AE09F938F938AE196E075
S21403EB209F938F9382DC0FB6F894DEBF0FBECDBFE4
S21403EB3081E0C8CF4CEC50E0B401CE01019629D356
S21403EB4095CEBF92AF929F926F9387E09AE09F9382
S21403EB508F9385E694E09F938F9367DC0FB6F894C4
S21403EB60DEBF0FBECDBF80E0ADCF2F923F924F9258
S21403EB705F926F927F928F929F92AF92BF92CF9245
S21403EB80DF92EF92FF920F931F93CF93DF93CDB74E
S21403EB90DEB727970FB6F894DEBF0FBECDBF2B01A7
S21403EBA03C0129833A834B835C8347015801DC018C
S21403EBB0CB018E0D9F1DA01FB11F0097A440B1056A
S21403EBC008F0D7C089819A81AB81BC818E0D9F1DC9
S21403EBD0A01FB11F0097A240B10508F0E3C09091B3
S21403EBE0360C9D83992309F47BC08FE19EE401973D
S21403EBF0F1F700C00000EF28E02AE12A09F497C0E5
S21403EC009FE0292E9AE0392E20C0960144E35BE06C
S21403EC103EDC8091340C9091350C2E813F81280F79
S21403EC20391F3093350C2093340C8C189D08AE088E
S21403EC30BF088FE097E20197F1F700C00000811448
S21403EC409104A104B10409F472C07501640121E0C2
S21403EC5082169206A104B10420F0C12CD12C7601B1
S21403EC60D394DF82CE828091340C9091350C298127
S21403EC703A814B815C81280F391F411D511DCA0102
S21403EC80B901960144E35BE0C4DA8091340C9091B9
S21403EC90350CA3019201280F391F411D511DCA01CE
S21403ECA0B90197018601060F171F281F391F011583
S21403ECB011052440310508F4A8CFDF92CF929F9325
S21403ECC08F937F936F933F922F9282E394E09F9369
S21403ECD08F93ABDB0FB6F894DEBF0FBECDBF99CFD5
S21403ECE08FEF99E09F938F938EEB96E09F938F938E
S21403ECF09CDB0F900F900F900F908D8127960FB689
S21403ED00F894DEBF0FBECDBFDF91CF911F910F9159
S21403ED10FF90EF90DF90CF90BF90AF909F908F9033
S21403ED207F906F905F904F903F902F9008951F9223
S21403ED301F921F921F927F926F925F924F929C81B7
S21403ED409F932B812F933A813F9349814F938FEF64
S21403ED5099E09F938F9389ED96E09F938F9365DB5E
S21403ED600FB6F894DEBF0FBECDBF91E09D83892F0B
S21403ED70C5CFBF92AF929F92EF927F926F925F92B0
S21403ED804F928FEF99E09F938F9384E496E09F933F
S21403ED908F934BDB0FB6F894DEBF0FBECDBF1D823D
S21403EDA08D81ACCFBF92AF929F92EF927F926F927C
S21403EDB05F924F928FEF99E09F938F9381E896E04F
S21403EDC09F938F9332DB0FB6F894DEBF0FBECDBF93
S21403EDD01D828D8193CFAF92BF92CF92DF92EF9237
S21403EDE0FF920F931F93CF93DF93CDB7DEB7A7970B
S21403EDF00FB6F894DEBF0FBECDBFCE0101966C01F1
S21403EE0087E2F60111928A95E9F78CE08F931F92B9
S21403EE108AEF99E09F938F938FE297E09F938F9368
S21403EE2004DB0F900F900F900F900F900F90F999AF
S21403EE30FECF47E250E060E07CE0C60198D40AEFDC
S21403EE4019E01F930F9386E697E09F938F93EDDA6F
S21403EE50C601E8DB0F900F900F900F90882309F4FC
S21403EE6065C11F930F9387EC97E09F938F93DDDA2B
S21403EE7089811F928F931F930F9382EE97E09F9340
S21403EE808F93D3DA8A811F928F931F930F938BEFFF
S21403EE9097E09F938F93C9DA8B811F928F931F936B
S21403EEA00F9386E198E09F938F93BFDA8C811F922E
S21403EEB08F931F930F938AE298E09F938F93B5DA0D
S21403EEC08D811F928F931F930F9385E498E09F93F2
S21403EED08F93ABDA0FB6F894DEBF0FBECDBF8E812D
S21403EEE01F928F931F930F9380E698E09F938F93C1
S21403EEF09CDA8F811F928F931F930F938AE798E074
S21403EF009F938F9392DA88851F928F931F930F9305
S21403EF1081E998E09F938F9388DA89851F928F9370
S21403EF201F930F9389EA98E09F938F937EDA0FB629
S21403EF30F894DEBF0FBECDBF8985882351F110E05C
S21403EF408AEFA82E89E0B82E9CE2E92E99E0F92EE6
S21403EF50D601F4E01F9FA00DB11D1124FD013996C3
S21403EF6083818F9382818F9381818F9319968C915E
S21403EF708F931F921F93BF92AF92FF92EF9255DA31
S21403EF801F5F0FB6F894DEBF0FBECDBF8985181777
S21403EF90F8F289A18F9388A18F938F8D8F938E8D8F
S21403EFA08F930AEF19E01F930F9382EC98E09F93D9
S21403EFB08F933BDA8DA18F938CA18F938BA18F9325
S21403EFC08AA18F931F930F9385EF98E09F938F9358
S21403EFD02CDA8FA18F938EA18F931F930F9383E1C8
S21403EFE099E09F938F9321DA0FB6F894DEBF0FBE96
S21403EFF0CDBF8C81813009F466C010E08B8181110E
S21403F00027C08E819D81891719F11F928F938AEFEE
S21403F01099E09F938F938EE699E09F938F9305DAFB
S21403F0208E81F60124E0829FE00DF11D1124618597
S21403F030728583859485BCDB0F900F900F900F909D
S21403F0400F900F90882309F43CC08E818D8311E0C6
S21403F050C601BDDA8AEF99E09F938F938DE899E016
S21403F0609F938F93E2D90F900F900F900F90F9997B
S21403F070FECF47E250E060E07CE0C60188D38AEF2B
S21403F08099E011114BC09F938F938AED99E09F935C
S21403F0908F93CBD90F900F900F900F9080E090E056
S21403F0A0A7960FB6F894DEBF0FBECDBFDF91CF9104
S21403F0B01F910F91FF90EF90DF90CF90BF90AF908E
S21403F0C0089511E0C5CF88851F928F931F930F93E2
S21403F0D08FE499E09F938F93A8D9EAA0FBA00CA195
S21403F0E01DA12E8D3F8D48A159A18885F60194E078
S21403F0F0899FE00DF11D11246185728583859485B2
S21403F10034DD0F900F900F900F900F900F90882381
S21403F11019F01C8211E072CF11E070CF9F938F938A
S21403F1208AEA99E09F938F9380D946DA1F930F93C9
S21403F13085E897E09F938F9378D9FFEF21E18AE7DD
S21403F140F15020408040E1F700C0000035DAA1E22C
S21403F1501A2EAA1BBB1BFD010DC0AA1FBB1FEE1F49
S21403F160FF1FA217B307E407F50720F0A21BB30B94
S21403F170E40BF50B661F771F881F991F1A9469F710
S21403F18060957095809590959B01AC01BD01CF016C
S21403F1900895FB01DC0102C005900D9241505040DA
S21403F1A0D8F708950F931F93CF93DF93CDB7DEB7AA
S21403F1B02E970FB6F894DEBF0FBECDBF8C01FA01B3
S21403F1C086E08C831A83098377FF02C060E070E8C9
S21403F1D0CB0101979E838D83A901BF01CE010196C2
S21403F1E019D04D815E8157FD0AC02F81388542179D
S21403F1F053070CF49A01F801E20FF31F10822E96C0
S21403F2000FB6F894DEBF0FBECDBFDF91CF911F912F
S21403F2100F9108952F923F924F925F926F927F9233
S21403F2208F929F92AF92BF92CF92DF92EF92FF920E
S21403F2300F931F93CF93DF93CDB7DEB72B970FB6FE
S21403F240F894DEBF0FBECDBF6C017B018A01FC01C3
S21403F25017821682838181FFBFC1CE0101963C01CE
S21403F260F6019381F70193FD859193FF81917F01C9
S21403F270882309F4ADC1853239F493FD859193FF54
S21403F28081917F01853221F4B60190E0D6D1E8CF93
S21403F290912C212C312CFFE1F315D8F08B3279F029
S21403F2A038F4803279F08332A1F4232D20611DC017
S21403F2B08D3261F0803369F4232D216016C0832DCF
S21403F2C08260382EE32DE4603E2E2AC0F32DF860CC
S21403F2D01DC037FC2DC020ED280F2A3040F08E329B
S21403F2E0B9F436FC75C1232D2064322E19C036FEC0
S21403F2F006C08AE0989E200D1124922E11C0EAE0E3
S21403F3002E9E200D1124222EF32DF0623F2E08C0D0
S21403F3108C3621F4832D8068382E02C0883641F45B
S21403F320F70193FD859193FF81917F018111B3CFFF
S21403F330982F9F7D9554933028F40C5F1F4F9FE3BF
S21403F34099830DC0833631F0833771F0833509F026
S21403F35055C020C0F801808189830E5F1F4F882423
S21403F3608394912C530112C02801F2E04F0E511CD6
S21403F370F801A080B18036FE03C0692D70E002C09C
S21403F3806FEF7FEFC5014ED14C018201F32DFF775E
S21403F3903F2E15C0280122E0420E511CF801A08022
S21403F3A0B18036FE03C0692D70E002C06FEF7FEFB9
S21403F3B0C5012DD14C01F32DF0683F2E820133FC9D
S21403F3C019C0822D90E088169906A0F4B60180E253
S21403F3D090E033D12A94F5CFF50137FC859137FEBB
S21403F3E081915F01B60190E028D121102A9421E093
S21403F3F0821A91088114910479F7E1C0843611F0DA
S21403F400893639F5F80137FE07C06081718182813C
S21403F41093810C5F1F4F08C060817181072E000C1B
S21403F420880B990B0E5F1F4FF32DFF763F2E97FF2A
S21403F43009C090958095709561957F4F8F4F9F4F2C
S21403F440F0683F2E2AE030E0A30133D1882E8618D9
S21403F45044C0853731F4232D2F7EB22E2AE030E0C8
S21403F46025C0932D997FB92E8F36C1F018F48835B1
S21403F47079F0AEC0803719F0883721F0A9C0E92F9C
S21403F480E061BE2EB4FE0DC0FB2DF460BF2E09C096
S21403F49034FE0AC0292F2660B22E06C028E030E0CC
S21403F4A005C020E130E002C020E132E0F801B7FEFB
S21403F4B007C060817181828193810C5F1F4F06C0F4
S21403F4C06081718180E090E00E5F1F4FA301F1D051
S21403F4D0882E8618FB2DFF773F2E36FE0DC0232D74
S21403F4E02E7FA22E891458F434FE0BC032FC09C0BA
S21403F4F0832D8E7EA82E05C0B82CA32C03C0B82C53
S21403F50001C0B92CA4FE0FC0FE01E80DF11D8081D9
S21403F510803321F49A2D997EA92E09C0A2FE06C037
S21403F520B394B39404C08A2D867809F0B394A3FCED
S21403F53010C0A0FE06C0B21480F4280C922C9B18B0
S21403F5400DC0B21458F4B60180E290E076D0B394BE
S21403F550F8CFB21418F42B1802C0982C212CA4FE52
S21403F5600FC0B60180E390E068D0A2FE16C0A1FCEF
S21403F57003C088E790E002C088E590E0B6010CC0BF
S21403F5808A2D867851F0A1FE02C08BE201C080E28C
S21403F590A7FC8DE2B60190E050D0891430F4B60192
S21403F5A080E390E04AD09A94F8CF8A94F301E80D6A
S21403F5B0F11D8081B60190E040D08110F6CF222065
S21403F5C009F44ECEB60180E290E037D02A94F7CF06
S21403F5D0F6018681978102C08FEF9FEF2B960FB6B9
S21403F5E0F894DEBF0FBECDBFDF91CF911F910F9171
S21403F5F0FF90EF90DF90CF90BF90AF909F908F904B
S21403F6007F906F905F904F903F902F900895FC01EE
S21403F6100590615070400110D8F7809590958E0F35
S21403F6209F1F0895FC016150704001900110D8F7A8
S21403F630809590958E0F9F1F08950F931F93CF93DA
S21403F640DF93FB01238121FD03C08FEF9FEF2CC0C7
S21403F65022FF16C0468157812481358142175307FE
S21403F66044F4A081B1819D012F5F3F4F31832083F6
S21403F6708C93268137812F5F3F4F3783268314C0B1
S21403F6808B01EC01FB010084F185E02D1995892B94
S21403F690E1F6D80116968D919C91179701961796C9
S21403F6A09C938E931697CE01DF91CF911F910F9166
S21403F6B00895FA01AA27283051F1203181F1E89400
S21403F6C06F936E7F6E5F7F4F8F4F9F4FAF4FB1E04D
S21403F6D03ED0B4E03CD0670F781F891F9A1FA11D48
S21403F6E0680F791F8A1F911DA11D6A0F711D811D49
S21403F6F0911DA11D20D009F468943F912AE0269F0E
S21403F70011243019305D3193DEF6CF010895462F6C
S21403F7104770405D4193B3E00FD0C9F7F6CF462F4D
S21403F7204F70405D4A3318F0495D31FD40524193B6
S21403F73002D0A9F7EACFB4E0A69597958795779573
S21403F7406795BA95C9F700976105710508959B01FA
S21403F750AC010A2E06945795479537952795BA9583
S21403F760C9F7620F731F841F951FA01D0895DC0140
S21403F770CB01FC01F999FECF06C0F2BDE1BDF89AB4
S21403F780319600B40D9241505040B8F70895DC010D
S21403F790A40FB51F4150504040F0CB01840F951F76
S21403F7A02E9105D041505040D8F70895262FF99949
S21403F7B0FECF92BD81BDF89A019700B4021639F0C8
S21403F7C01FBA20BD0FB6F894FA9AF99A0FBE089599
S21403F7D0F89481E180935700E89585B7816085BFEB
S21403F7E085B78C7F85BF8FEF8DBF81E28EBF0C946C
S20A03F7F00000F894FFCFB1
S21403F7F65B25735D202D20457261736564207061F9
S21403F80667652061742061646472657373205B3078
S21403F81678253038585D0A005B25735D202D205702
S21403F82672697474656E2070616765206174206101
S21403F836646472657373205B3078253038585D0AC6
S21403F846005B25735D202D20454550524F4D2026DF
S21403F8562053504D206E6F7420627573792C204F9B
S21403F8664B210A000D0A0D0A3E204D756C7469423B
S21403F8766F6F742076312E300A005B25735D202D5C
S21403F88620426F6F7420436F6E666967206D6167EB
S21403F896696320646F6573206E6F74206D6174638D
S21403F8A668205B253032585D0A005B25735D202D84
S21403F8B6204E6F726D616C20524F4D20696E6465E3
S21403F8C6782065786365656473204D41585F524FAB
S21403F8D64D53205B25755D0A005B25735D202D2041
S21403F8E64E6F726D616C20524F4D20696E6465785B
S21403F8F6206578636565647320524F4D436F756E56
S21403F90674205B25755D205B25755D0A005B257394
S21403F9165D202D204C6F616420524F4D20696E6426
S21403F92665782065786365656473204D41585F5234
S21403F9364F4D53205B25755D0A005B25735D202DB1
S21403F946204C6F616420524F4D20696E64657820A3
S21403F9566578636565647320524F4D436F756E74A1
S21403F966205B25755D205B25755D0A005B25735D4B
S21403F976202D2050696E20524F4D20696E6465789F
S21403F9862065786365656473204D41585F524F4D15
S21403F99653205B25755D0A005B25735D202D20507D
S21403F9A6696E20524F4D20696E64657820657863CC
S21403F9B66565647320524F4D436F756E74205B25E1
S21403F9C6755D205B25755D0A005B25735D202D201E
S21403F9D643524320646F6573206E6F74206D6174A3
S21403F9E66368205B3078253034585D0A005B2573E0
S21403F9F65D202D2042756666657220706F696E748B
S21403FA066572206F722073697A6520696E76616CFB
S21403FA166964205B3078253034585D205B25645D49
S21403FA260A005B25735D202D20446174612073698B
S21403FA367A65206578636565647320666C617368AA
S21403FA462073697A65205B3078253038585D205BED
S21403FA5625645D0A005B25735D202D204164647270
S21403FA66657373206973206C6F776572207468619B
S21403FA766E204956542073697A65205B30782530A4
S21403FA8638585D0A005B25735D202D20446174613A
S21403FA962073697A65206578636565647320666C8A
S21403FAA66173682073697A65205B30782530385829
S21403FAB65D0A005B25735D202D204C6F6164696EBD
S21403FAC6672049565420696E746F20696E74657292
S21403FAD66E616C20627566666572205B30782530CB
S21403FAE638585D205B25755D0A005B25735D202D02
S21403FAF620495654204C6F6164656420696E746FA2
S21403FB0620696E7465726E616C20627566666572D0
S21403FB160A005B25735D202D204F726967696E6147
S21403FB266C2062797465636F6465205B2530325892
S21403FB362025303258202530325820253032585D5D
S21403FB460A005B25735D202D204F5020636F646586
S21403FB5620617420766563746F72205B3078253077
S21403FB6634585D205B25755D0A005B25735D202D85
S21403FB7620466F756E6420524A4D50206174207677
S21403FB866563746F72205B25755D0A005B25735D7E
S21403FB96202D20524A4D5020646966662062797489
S21403FBA6652061646472657373205B25645D0A0071
S21403FBB65B25735D202D204A4D50206162736F6C62
S21403FBC675746520627974652061646472657373FF
S21403FBD6205B3078253038585D0A005B25735D2038
S21403FBE62D20506174636865642062797465636F5B
S21403FBF66465205B25303258202530325820253060
S21403FC06325820253032585D0A005B25735D202D59
S21403FC162057726F746520666C617368207061671F
S21403FC2665206174205B3078253038585D205B2567
S21403FC36645D0A005B25735D202D20446174612094
S21403FC4673697A65206578636565647320696E747F
S21403FC5665726E616C20666C6173682073697A657B
S21403FC66205B3078253038585D205B256C755D0A39
S21403FC76005B25735D202D20446174612073697AC9
S21403FC866520657863656564732065787465726E4A
S21403FC96616C20666C6173682073697A65205B30D5
S21403FCA678253038585D205B256C755D0A005B2524
S21403FCB6735D202D2053504920466C617368206976
S21403FCC66E6974204E4F4B0A005B25735D202D200C
S21403FCD6436F70696564206669726D776172652025
S21403FCE666726F6D2065787465726E616C20666CDD
S21403FCF661736820746F20696E7465726E616C201A
S21403FD06666C617368205B3078253038585D205BF7
S21403FD163078253038585D205B256C755D0A005BA8
S21403FD2625735D202D2052656164696E6720626FB8
S21403FD366F7420636F6E666967206174204545504D
S21403FD46524F4D2061646472657373205B30782569
S21403FD563034585D0A005B25735D202D2056616C92
S21403FD6669646174696E6720626F6F7420636F6E71
S21403FD766669670A005B25735D202D20426F6F74E4
S21403FD8620636F6E666967206E6F742076616C6992
S21403FD96642C2077616974696E6720352073656302
S21403FDA66F6E6473206265666F7265207265626F36
S21403FDB66F74696E670A005B25735D202D20426F9C
S21403FDC66F7420636F6E6669672076616C6964215B
S21403FDD60A005B25735D202D2020204D616769632D
S21403FDE63A20307825303258210A005B25735D2089
S21403FDF62D20202056657273696F6E3A203078255B
S21403FE06303258210A005B25735D202D2020204DB5
S21403FE166F64653A202575210A005B25735D202DE0
S21403FE262020204C6F6164205374617475733A20E6
S21403FE362575210A005B25735D202D20202043753A
S21403FE467272656E7420524F4D3A202575210A004C
S21403FE565B25735D202D2020204E6F726D616C200E
S21403FE66524F4D3A202575210A005B25735D202DDA
S21403FE7620202050696E20524F4D3A202575210AC0
S21403FE86005B25735D202D2020204C6F6164205275
S21403FE964F4D3A202575210A005B25735D202D20DC
S21403FEA62020524F4D20436F756E743A20257521D8
S21403FEB60A005B25735D202D2020204C6F6164208D
S21403FEC6524F4D2045787465726E616C20466C61A0
S21403FED6736820416464726573733A2030782530FC
S21403FEE63858210A005B25735D202D2020204C6F91
S21403FEF6616420524F4D2053697A653A20256C7506
S21403FF06210A005B25735D202D20202043524331B2
S21403FF16363A20307825303458210A005B25735D3F
S21403FF26202D202020524F4D202325752041646422
S21403FF36726573733A20307825303858210A005B89
S21403FF4625735D202D20476F696E6720746F206CBE
S21403FF566F616420524F4D205B25755D0A005B2555
S21403FF66735D202D20476F696E6720746F20626F5E
S21403FF766F7420524F4D205B25755D0A005B257313
S21403FF865D202D205570646174696E6720626F6FFD
S21403FF967420636F6E6669670A005B25735D202DA2
S21403FFA620526573657474696E672074686520737A
S21403FFB6797374656D20746F20636C656172207245
S21403FFC665676973746572730A005B25735D202D16
S21403FFD620426F6F74696E6720746865206170705F
S21403FFE66C69636174696F6E0A006D61696E006C95
S21403FFF66F6164524F4D00626F6F74524F4D0066C9
S2140400066C61736850726F6772616D5061676500E4
S21404001676616C6964617465436F6E666967000031
S80403E00018
